{"abi":[{"type":"function","name":"checkStatement","inputs":[{"name":"statement","type":"tuple","internalType":"struct Attestation","components":[{"name":"uid","type":"bytes32","internalType":"bytes32"},{"name":"schema","type":"bytes32","internalType":"bytes32"},{"name":"time","type":"uint64","internalType":"uint64"},{"name":"expirationTime","type":"uint64","internalType":"uint64"},{"name":"revocationTime","type":"uint64","internalType":"uint64"},{"name":"refUID","type":"bytes32","internalType":"bytes32"},{"name":"recipient","type":"address","internalType":"address"},{"name":"attester","type":"address","internalType":"address"},{"name":"revocable","type":"bool","internalType":"bool"},{"name":"data","type":"bytes","internalType":"bytes"}]},{"name":"","type":"bytes","internalType":"bytes"},{"name":"","type":"bytes32","internalType":"bytes32"}],"outputs":[{"name":"","type":"bool","internalType":"bool"}],"stateMutability":"view"},{"type":"error","name":"AttestationRevoked","inputs":[]},{"type":"error","name":"DeadlineExpired","inputs":[]}],"bytecode":{"object":"0x60808060405234601557610287908161001a8239f35b5f80fdfe60806040526004361015610011575f80fd5b5f3560e01c631272ff8b14610024575f80fd5b346101a85760603660031901126101a85760043567ffffffffffffffff81116101a85761014060031982360301126101a857604051610140810181811067ffffffffffffffff8211176101ac576040528160040135815260248201356020820152610091604483016101c0565b60408201526100a2606483016101c0565b90606081019182526100b6608484016101c0565b926080820193845260a481013560a08301526100d460c482016101d5565b60c08301526100e560e482016101d5565b60e083015261010481013580151581036101a85761010083015261012481013567ffffffffffffffff81116101a85761012091600461012792369201016101e9565b9101526024359067ffffffffffffffff82116101a85761015467ffffffffffffffff9236906004016101e9565b505116801515908161019e575b5061018f575167ffffffffffffffff1661018057602060405160018152f35b637b6227e960e11b5f5260045ffd5b631ab7da6b60e01b5f5260045ffd5b905042115f610161565b5f80fd5b634e487b7160e01b5f52604160045260245ffd5b359067ffffffffffffffff821682036101a857565b35906001600160a01b03821682036101a857565b81601f820112156101a85780359067ffffffffffffffff82116101ac5760405192601f8301601f19908116603f0116840167ffffffffffffffff8111858210176101ac57604052828452602083830101116101a857815f92602080930183860137830101529056fea2646970667358221220b2573bc181b5cc9886345db7b9d6c4101b496c9ffe2ced4a4a242b362b8b64b464736f6c634300081b0033","linkReferences":{}},"methodIdentifiers":{"checkStatement((bytes32,bytes32,uint64,uint64,uint64,bytes32,address,address,bool,bytes),bytes,bytes32)":"1272ff8b"},"id":28}