{"abi":[{"type":"function","name":"checkStatement","inputs":[{"name":"statement","type":"tuple","internalType":"struct Attestation","components":[{"name":"uid","type":"bytes32","internalType":"bytes32"},{"name":"schema","type":"bytes32","internalType":"bytes32"},{"name":"time","type":"uint64","internalType":"uint64"},{"name":"expirationTime","type":"uint64","internalType":"uint64"},{"name":"revocationTime","type":"uint64","internalType":"uint64"},{"name":"refUID","type":"bytes32","internalType":"bytes32"},{"name":"recipient","type":"address","internalType":"address"},{"name":"attester","type":"address","internalType":"address"},{"name":"revocable","type":"bool","internalType":"bool"},{"name":"data","type":"bytes","internalType":"bytes"}]},{"name":"demand","type":"bytes","internalType":"bytes"},{"name":"counteroffer","type":"bytes32","internalType":"bytes32"}],"outputs":[{"name":"","type":"bool","internalType":"bool"}],"stateMutability":"view"},{"type":"function","name":"decodeDemandData","inputs":[{"name":"data","type":"bytes","internalType":"bytes"}],"outputs":[{"name":"","type":"tuple","internalType":"struct AllArbiter.DemandData","components":[{"name":"arbiters","type":"address[]","internalType":"address[]"},{"name":"demands","type":"bytes[]","internalType":"bytes[]"}]}],"stateMutability":"pure"},{"type":"error","name":"MismatchedArrayLengths","inputs":[]}],"bytecode":{"object":"0x60808060405234601557610881908161001a8239f35b5f80fdfe6080806040526004361015610012575f80fd5b5f3560e01c9081631272ff8b146102a0575063838a68d914610032575f80fd5b34610284576020366003190112610284576004356001600160401b03811161028457366023820112156102845780600401356001600160401b03811161028457810160248101913683116102845760606020604051610090816103e6565b8281520152602081830312610284576024810135906001600160401b0382116102845701906040908290031261028457604051906100cd826103e6565b60248101356001600160401b0381116102845760249082010183601f82011215610284578035906100fd826104cf565b9161010b6040519384610401565b80835260208084019160051b8301019186831161028457602001905b82821061028857505050825260448101356001600160401b0381116102845760249101019180601f84011215610284578235610162816104cf565b936101706040519586610401565b81855260208086019260051b820101918383116102845760208201905b8382106102575785876020820190815260405191829160208352606083019151916040602085015282518091526020608085019301905f5b818110610235575050505190601f19838203016040840152815180825260208201916020808360051b8301019401925f915b8383106102045786860387f35b919395509193602080610223600193601f1986820301875289516104ab565b970193019301909286959492936101f7565b82516001600160a01b03168552869550602094850194909201916001016101c5565b81356001600160401b0381116102845760209161027987848094880101610465565b81520191019061018d565b5f80fd5b6020809161029584610436565b815201910190610127565b34610284576060366003190112610284576004356001600160401b0381116102845761014060031982360301126102845761014082018281106001600160401b038211176103d257604052806004013582526024810135602083015261030860448201610422565b604083015261031960648201610422565b606083015261032a60848201610422565b608083015260a481013560a083015261034560c48201610436565b60c083015261035660e48201610436565b60e0830152610104810135801515810361028457610100830152610124810135906001600160401b0382116102845760046103949236920101610465565b6101208201526024356001600160401b038111610284576020916103bf6103c8923690600401610465565b6044359161050e565b6040519015158152f35b634e487b7160e01b5f52604160045260245ffd5b604081019081106001600160401b038211176103d257604052565b90601f801991011681019081106001600160401b038211176103d257604052565b35906001600160401b038216820361028457565b35906001600160a01b038216820361028457565b6001600160401b0381116103d257601f01601f191660200190565b81601f820112156102845780359061047c8261044a565b9261048a6040519485610401565b8284526020838301011161028457815f926020809301838601378301015290565b805180835260209291819084018484015e5f828201840152601f01601f1916010190565b6001600160401b0381116103d25760051b60200190565b80518210156104fa5760209160051b010190565b634e487b7160e01b5f52603260045260245ffd5b919080518101926020840191602081860312610284576020810151906001600160401b038211610284570193604090859003126102845760405193610552856103e6565b60208101516001600160401b0381116102845760209082010183601f82011215610284578051610581816104cf565b9161058f6040519384610401565b81835260208084019260051b8201019086821161028457602001915b81831061082b57505050855260408101516001600160401b0381116102845760209101019180601f84011215610284578251926105e7846104cf565b936105f56040519586610401565b80855260208086019160051b830101918383116102845760208101915b8383106107c557505050505060208401918083528451519051036107b6575f5b845180518210156107ab57610737906020906001600160a01b03906106589085906104e6565b51166106658487516104e6565b51906040518080958194631272ff8b60e01b83526060600484015289516064840152868a015160848401526001600160401b0360408b01511660a48401526001600160401b0360608b01511660c48401526001600160401b0360808b01511660e484015260a08a015161010484015260018060a01b0360c08b01511661012484015260018060a01b0360e08b0151166101448401526101008a015115156101648401526107256101208b01516101406101848601526101a48501906104ab565b838103600319016024850152906104ab565b8a604483015203915afa9081156107a0575f91610766575b501561075d57600101610632565b50505050505f90565b90506020813d8211610798575b8161078060209383610401565b8101031261028457518015158103610284575f61074f565b3d9150610773565b6040513d5f823e3d90fd5b505050505050600190565b632b477e7160e11b5f5260045ffd5b82516001600160401b03811161028457820185603f82011215610284576020810151916107f18361044a565b6107fe6040519182610401565b8381526040838501018810610284575f602085819660408397018386015e83010152815201920191610612565b82516001600160a01b0381168103610284578152602092830192016105ab56fea26469706673582212209bde0fb9899fd8bf76f8462df7bdb29bb58bbc242ffbe8e407cb8e0cfb53e46f64736f6c634300081b0033","linkReferences":{}},"methodIdentifiers":{"checkStatement((bytes32,bytes32,uint64,uint64,uint64,bytes32,address,address,bool,bytes),bytes,bytes32)":"1272ff8b","decodeDemandData(bytes)":"838a68d9"},"id":26}