{"abi":[{"type":"function","name":"checkStatement","inputs":[{"name":"statement","type":"tuple","internalType":"struct Attestation","components":[{"name":"uid","type":"bytes32","internalType":"bytes32"},{"name":"schema","type":"bytes32","internalType":"bytes32"},{"name":"time","type":"uint64","internalType":"uint64"},{"name":"expirationTime","type":"uint64","internalType":"uint64"},{"name":"revocationTime","type":"uint64","internalType":"uint64"},{"name":"refUID","type":"bytes32","internalType":"bytes32"},{"name":"recipient","type":"address","internalType":"address"},{"name":"attester","type":"address","internalType":"address"},{"name":"revocable","type":"bool","internalType":"bool"},{"name":"data","type":"bytes","internalType":"bytes"}]},{"name":"demand","type":"bytes","internalType":"bytes"},{"name":"","type":"bytes32","internalType":"bytes32"}],"outputs":[{"name":"","type":"bool","internalType":"bool"}],"stateMutability":"view"},{"type":"function","name":"decodeDemandData","inputs":[{"name":"data","type":"bytes","internalType":"bytes"}],"outputs":[{"name":"","type":"tuple","internalType":"struct IntrinsicsArbiter2.DemandData","components":[{"name":"schema","type":"bytes32","internalType":"bytes32"}]}],"stateMutability":"pure"},{"type":"error","name":"AttestationRevoked","inputs":[]},{"type":"error","name":"DeadlineExpired","inputs":[]},{"type":"error","name":"InvalidSchema","inputs":[]}],"bytecode":{"object":"0x60808060405234601557610362908161001a8239f35b5f80fdfe60806040526004361015610011575f80fd5b5f3560e01c80631272ff8b146100b15763838a68d91461002f575f80fd5b346100ad5760203660031901126100ad5760043567ffffffffffffffff81116100ad57366023820112156100ad57806004013567ffffffffffffffff81116100ad5781013660248201116100ad576020905f61008961027b565b52829003126100ad57602090602461009f61027b565b910135809152604051908152f35b5f80fd5b346100ad5760603660031901126100ad5760043567ffffffffffffffff81116100ad5761014060031982360301126100ad57604051610140810181811067ffffffffffffffff8211176102675760405281600401358152602081016024830135815261011f6044840161029b565b60408301526101306064840161029b565b91606081019283526101446084850161029b565b936080820194855260a481013560a083015261016260c482016102b0565b60c083015261017360e482016102b0565b60e083015261010481013580151581036100ad5761010083015261012481013567ffffffffffffffff81116100ad576101209160046101b592369201016102c4565b91015260243567ffffffffffffffff81116100ad576101d89036906004016102c4565b906020828051810103126100ad5760206101f061027b565b9201518092525103610258575167ffffffffffffffff16801515908161024e575b5061023f575167ffffffffffffffff1661023057602060405160018152f35b637b6227e960e11b5f5260045ffd5b631ab7da6b60e01b5f5260045ffd5b9050421182610211565b635f9bd90760e11b5f5260045ffd5b634e487b7160e01b5f52604160045260245ffd5b604051906020820182811067ffffffffffffffff82111761026757604052565b359067ffffffffffffffff821682036100ad57565b35906001600160a01b03821682036100ad57565b81601f820112156100ad5780359067ffffffffffffffff82116102675760405192601f8301601f19908116603f0116840167ffffffffffffffff81118582101761026757604052828452602083830101116100ad57815f92602080930183860137830101529056fea2646970667358221220048006195dd1dfe8f04b2b5088c799dc5c02c146beea899af21798a040461ae464736f6c634300081b0033","linkReferences":{}},"methodIdentifiers":{"checkStatement((bytes32,bytes32,uint64,uint64,uint64,bytes32,address,address,bool,bytes),bytes,bytes32)":"1272ff8b","decodeDemandData(bytes)":"838a68d9"},"id":29}