{
  "abi": [
    {
      "type": "constructor",
      "inputs": [
        {
          "name": "_eas",
          "type": "address",
          "internalType": "contract IEAS"
        }
      ],
      "stateMutability": "nonpayable"
    },
    {
      "type": "function",
      "name": "arbitrate",
      "inputs": [
        {
          "name": "statement",
          "type": "bytes32",
          "internalType": "bytes32"
        },
        {
          "name": "decision",
          "type": "bool",
          "internalType": "bool"
        }
      ],
      "outputs": [],
      "stateMutability": "nonpayable"
    },
    {
      "type": "function",
      "name": "checkStatement",
      "inputs": [
        {
          "name": "statement",
          "type": "tuple",
          "internalType": "struct Attestation",
          "components": [
            {
              "name": "uid",
              "type": "bytes32",
              "internalType": "bytes32"
            },
            {
              "name": "schema",
              "type": "bytes32",
              "internalType": "bytes32"
            },
            {
              "name": "time",
              "type": "uint64",
              "internalType": "uint64"
            },
            {
              "name": "expirationTime",
              "type": "uint64",
              "internalType": "uint64"
            },
            {
              "name": "revocationTime",
              "type": "uint64",
              "internalType": "uint64"
            },
            {
              "name": "refUID",
              "type": "bytes32",
              "internalType": "bytes32"
            },
            {
              "name": "recipient",
              "type": "address",
              "internalType": "address"
            },
            {
              "name": "attester",
              "type": "address",
              "internalType": "address"
            },
            {
              "name": "revocable",
              "type": "bool",
              "internalType": "bool"
            },
            {
              "name": "data",
              "type": "bytes",
              "internalType": "bytes"
            }
          ]
        },
        {
          "name": "demand",
          "type": "bytes",
          "internalType": "bytes"
        },
        {
          "name": "",
          "type": "bytes32",
          "internalType": "bytes32"
        }
      ],
      "outputs": [
        {
          "name": "",
          "type": "bool",
          "internalType": "bool"
        }
      ],
      "stateMutability": "view"
    },
    {
      "type": "function",
      "name": "decodeDemandData",
      "inputs": [
        {
          "name": "data",
          "type": "bytes",
          "internalType": "bytes"
        }
      ],
      "outputs": [
        {
          "name": "",
          "type": "tuple",
          "internalType": "struct TrustedOracleArbiter.DemandData",
          "components": [
            {
              "name": "oracle",
              "type": "address",
              "internalType": "address"
            },
            {
              "name": "data",
              "type": "bytes",
              "internalType": "bytes"
            }
          ]
        }
      ],
      "stateMutability": "pure"
    },
    {
      "type": "function",
      "name": "requestArbitration",
      "inputs": [
        {
          "name": "_statement",
          "type": "bytes32",
          "internalType": "bytes32"
        },
        {
          "name": "oracle",
          "type": "address",
          "internalType": "address"
        }
      ],
      "outputs": [],
      "stateMutability": "nonpayable"
    },
    {
      "type": "event",
      "name": "ArbitrationMade",
      "inputs": [
        {
          "name": "statement",
          "type": "bytes32",
          "indexed": true,
          "internalType": "bytes32"
        },
        {
          "name": "oracle",
          "type": "address",
          "indexed": true,
          "internalType": "address"
        },
        {
          "name": "decision",
          "type": "bool",
          "indexed": false,
          "internalType": "bool"
        }
      ],
      "anonymous": false
    },
    {
      "type": "event",
      "name": "ArbitrationRequested",
      "inputs": [
        {
          "name": "statement",
          "type": "bytes32",
          "indexed": true,
          "internalType": "bytes32"
        },
        {
          "name": "oracle",
          "type": "address",
          "indexed": true,
          "internalType": "address"
        }
      ],
      "anonymous": false
    },
    {
      "type": "error",
      "name": "UnauthorizedArbitrationRequest",
      "inputs": []
    }
  ],
  "bytecode": {
    "object": "0x608034606f57601f61077338819003918201601f19168301916001600160401b03831184841017607357808492602094604052833981010312606f57516001600160a01b03811690819003606f575f80546001600160a01b0319169190911790556040516106eb90816100888239f35b5f80fd5b634e487b7160e01b5f52604160045260245ffdfe6080806040526004361015610012575f80fd5b5f3560e01c9081631272ff8b146103a657508063838a68d91461028c5780638c08667e146102195763ef9fb71d14610048575f80fd5b3461020a57604036600319011261020a576024356001600160a01b038116906004359082900361020a575f80546040516328c44a9960e21b8152600481018490529190829060249082906001600160a01b03165afa90811561020e575f91610116575b5060e08101516001600160a01b031633141590816100fe575b506100ef577f4a55e4a537f0b657a8b464f243ae30dd8404841df3956cceee1aabac341d382f5f80a3005b63ff323ecb60e01b5f5260045ffd5b60c001516001600160a01b031633141590505f6100c4565b90503d805f833e610127818361059d565b81019060208183031261020a578051906001600160401b03821161020a57016101408183031261020a576040519161015e83610552565b8151835260208201516020840152610178604083016106a1565b6040840152610189606083016106a1565b606084015261019a608083016106a1565b608084015260a082015160a08401526101b560c08301610647565b60c08401526101c660e08301610647565b60e0840152610100820151801515810361020a576101008401526101208201516001600160401b03811161020a576101fe920161065b565b6101208201525f6100ab565b5f80fd5b6040513d5f823e3d90fd5b3461020a57604036600319011261020a576004356024359081151580920361020a57335f52600160205260405f20815f5260205260405f2060ff1981541660ff84161790556040519182527f17b56dd782cd998b68e9b95d1fc547096b22671d6848644badf18d515329792760203393a3005b3461020a57602036600319011261020a576004356001600160401b03811161020a573660238201121561020a5780600401356001600160401b03811161020a578101602481019136831161020a57606060206040516102ea81610582565b5f8152015260208183031261020a576024810135906001600160401b03821161020a5701906040908290031261020a576040519161032783610582565b610333602483016105d2565b83526044820135906001600160401b03821161020a576024610359926080940101610601565b9160208101928352602060405193849282845260018060a01b0390511682840152516040808401528051918291826060860152018484015e5f828201840152601f01601f19168101030190f35b3461020a57606036600319011261020a576004356001600160401b03811161020a57610140600319823603011261020a576103e082610552565b80600401358252602481013560208301526103fd604482016105be565b604083015261040e606482016105be565b606083015261041f608482016105be565b608083015260a481013560a083015261043a60c482016105d2565b60c083015261044b60e482016105d2565b60e0830152610104810135801515810361020a57610100830152610124810135906001600160401b03821161020a5760046104899236920101610601565b6101208201526024356001600160401b03811161020a576104ae903690600401610601565b805181019060208183031261020a576020810151906001600160401b03821161020a57019060408282031261020a57604051916104ea83610582565b6104f660208201610647565b83526040810151916001600160401b03831161020a5761051d92602080920192010161065b565b602082015260018060a01b039051165f52600160205260405f2090515f52602052602060ff60405f2054166040519015158152f35b61014081019081106001600160401b0382111761056e57604052565b634e487b7160e01b5f52604160045260245ffd5b604081019081106001600160401b0382111761056e57604052565b90601f801991011681019081106001600160401b0382111761056e57604052565b35906001600160401b038216820361020a57565b35906001600160a01b038216820361020a57565b6001600160401b03811161056e57601f01601f191660200190565b81601f8201121561020a57803590610618826105e6565b92610626604051948561059d565b8284526020838301011161020a57815f926020809301838601378301015290565b51906001600160a01b038216820361020a57565b81601f8201121561020a57805190610672826105e6565b92610680604051948561059d565b8284526020838301011161020a57815f9260208093018386015e8301015290565b51906001600160401b038216820361020a5756fea2646970667358221220cd42aa4236788fa36d0c619b8c23929768f4794fb3e6924f04174560d10db9d464736f6c634300081b0033",
    "linkReferences": {}
  },
  "methodIdentifiers": {
    "arbitrate(bytes32,bool)": "8c08667e",
    "checkStatement((bytes32,bytes32,uint64,uint64,uint64,bytes32,address,address,bool,bytes),bytes,bytes32)": "1272ff8b",
    "decodeDemandData(bytes)": "838a68d9",
    "requestArbitration(bytes32,address)": "ef9fb71d"
  },
  "id": 62
}